{
	"demo/Function.sol": {
		"XYZ": {
			"abi": [
				{
					"inputs": [],
					"name": "callFunc",
					"outputs": [
						{
							"internalType": "uint256",
							"name": "",
							"type": "uint256"
						}
					],
					"stateMutability": "pure",
					"type": "function"
				},
				{
					"inputs": [],
					"name": "callFuncWithKeyValue",
					"outputs": [
						{
							"internalType": "uint256",
							"name": "",
							"type": "uint256"
						}
					],
					"stateMutability": "pure",
					"type": "function"
				},
				{
					"inputs": [
						{
							"internalType": "uint256",
							"name": "x",
							"type": "uint256"
						},
						{
							"internalType": "uint256",
							"name": "y",
							"type": "uint256"
						},
						{
							"internalType": "uint256",
							"name": "z",
							"type": "uint256"
						},
						{
							"internalType": "address",
							"name": "a",
							"type": "address"
						},
						{
							"internalType": "bool",
							"name": "b",
							"type": "bool"
						},
						{
							"internalType": "string",
							"name": "c",
							"type": "string"
						}
					],
					"name": "someFuncWithManyInput",
					"outputs": [
						{
							"internalType": "uint256",
							"name": "",
							"type": "uint256"
						}
					],
					"stateMutability": "pure",
					"type": "function"
				}
			],
			"devdoc": {
				"kind": "dev",
				"methods": {},
				"version": 1
			},
			"evm": {
				"assembly": "    /* \"demo/Function.sol\":786:1367  contract XYZ{... */\n  mstore(0x40, 0x80)\n  callvalue\n  dup1\n  iszero\n  tag_1\n  jumpi\n  0x00\n  dup1\n  revert\ntag_1:\n  pop\n  dataSize(sub_0)\n  dup1\n  dataOffset(sub_0)\n  0x00\n  codecopy\n  0x00\n  return\nstop\n\nsub_0: assembly {\n        /* \"demo/Function.sol\":786:1367  contract XYZ{... */\n      mstore(0x40, 0x80)\n      callvalue\n      dup1\n      iszero\n      tag_1\n      jumpi\n      0x00\n      dup1\n      revert\n    tag_1:\n      pop\n      jumpi(tag_2, lt(calldatasize, 0x04))\n      shr(0xe0, calldataload(0x00))\n      dup1\n      0x72057987\n      eq\n      tag_3\n      jumpi\n      dup1\n      0x9a7846b9\n      eq\n      tag_4\n      jumpi\n      dup1\n      0xcf785335\n      eq\n      tag_5\n      jumpi\n    tag_2:\n      0x00\n      dup1\n      revert\n        /* \"demo/Function.sol\":1099:1358  function callFuncWithKeyValue()external pure  returns (uint256){... */\n    tag_3:\n      tag_6\n      tag_7\n      jump\t// in\n    tag_6:\n      mload(0x40)\n      tag_8\n      swap2\n      swap1\n      tag_9\n      jump\t// in\n    tag_8:\n      mload(0x40)\n      dup1\n      swap2\n      sub\n      swap1\n      return\n        /* \"demo/Function.sol\":961:1091  function callFunc()external pure returns (uint256){... */\n    tag_4:\n      tag_10\n      tag_11\n      jump\t// in\n    tag_10:\n      mload(0x40)\n      tag_12\n      swap2\n      swap1\n      tag_9\n      jump\t// in\n    tag_12:\n      mload(0x40)\n      dup1\n      swap2\n      sub\n      swap1\n      return\n        /* \"demo/Function.sol\":805:955  function someFuncWithManyInput(... */\n    tag_5:\n      tag_13\n      0x04\n      dup1\n      calldatasize\n      sub\n      dup2\n      add\n      swap1\n      tag_14\n      swap2\n      swap1\n      tag_15\n      jump\t// in\n    tag_14:\n      tag_16\n      jump\t// in\n    tag_13:\n      mload(0x40)\n      tag_17\n      swap2\n      swap1\n      tag_9\n      jump\t// in\n    tag_17:\n      mload(0x40)\n      dup1\n      swap2\n      sub\n      swap1\n      return\n        /* \"demo/Function.sol\":1099:1358  function callFuncWithKeyValue()external pure  returns (uint256){... */\n    tag_7:\n        /* \"demo/Function.sol\":1154:1161  uint256 */\n      0x00\n        /* \"demo/Function.sol\":1180:1350  someFuncWithManyInput(... */\n      tag_19\n        /* \"demo/Function.sol\":1287:1288  1 */\n      0x01\n        /* \"demo/Function.sol\":1305:1306  2 */\n      0x02\n        /* \"demo/Function.sol\":1323:1324  3 */\n      0x03\n        /* \"demo/Function.sol\":1227:1228  0 */\n      0x00\n        /* \"demo/Function.sol\":1246:1250  true */\n      0x01\n        /* \"demo/Function.sol\":1180:1350  someFuncWithManyInput(... */\n      mload(0x40)\n      dup1\n      0x40\n      add\n      0x40\n      mstore\n      dup1\n      0x01\n      dup2\n      mstore\n      0x20\n      add\n      0x6300000000000000000000000000000000000000000000000000000000000000\n      dup2\n      mstore\n      pop\n        /* \"demo/Function.sol\":1180:1201  someFuncWithManyInput */\n      tag_16\n        /* \"demo/Function.sol\":1180:1350  someFuncWithManyInput(... */\n      jump\t// in\n    tag_19:\n        /* \"demo/Function.sol\":1173:1350  return someFuncWithManyInput(... */\n      swap1\n      pop\n        /* \"demo/Function.sol\":1099:1358  function callFuncWithKeyValue()external pure  returns (uint256){... */\n      swap1\n      jump\t// out\n        /* \"demo/Function.sol\":961:1091  function callFunc()external pure returns (uint256){... */\n    tag_11:\n        /* \"demo/Function.sol\":1003:1010  uint256 */\n      0x00\n        /* \"demo/Function.sol\":1030:1083  someFuncWithManyInput(1, 2, 3, address(0), true, 'c') */\n      tag_21\n        /* \"demo/Function.sol\":1052:1053  1 */\n      0x01\n        /* \"demo/Function.sol\":1055:1056  2 */\n      0x02\n        /* \"demo/Function.sol\":1058:1059  3 */\n      0x03\n        /* \"demo/Function.sol\":1069:1070  0 */\n      0x00\n        /* \"demo/Function.sol\":1073:1077  true */\n      0x01\n        /* \"demo/Function.sol\":1030:1083  someFuncWithManyInput(1, 2, 3, address(0), true, 'c') */\n      mload(0x40)\n      dup1\n      0x40\n      add\n      0x40\n      mstore\n      dup1\n      0x01\n      dup2\n      mstore\n      0x20\n      add\n      0x6300000000000000000000000000000000000000000000000000000000000000\n      dup2\n      mstore\n      pop\n        /* \"demo/Function.sol\":1030:1051  someFuncWithManyInput */\n      tag_16\n        /* \"demo/Function.sol\":1030:1083  someFuncWithManyInput(1, 2, 3, address(0), true, 'c') */\n      jump\t// in\n    tag_21:\n        /* \"demo/Function.sol\":1022:1083  return  someFuncWithManyInput(1, 2, 3, address(0), true, 'c') */\n      swap1\n      pop\n        /* \"demo/Function.sol\":961:1091  function callFunc()external pure returns (uint256){... */\n      swap1\n      jump\t// out\n        /* \"demo/Function.sol\":805:955  function someFuncWithManyInput(... */\n    tag_16:\n        /* \"demo/Function.sol\":931:938  uint256 */\n      0x00\n        /* \"demo/Function.sol\":805:955  function someFuncWithManyInput(... */\n      swap7\n      swap6\n      pop\n      pop\n      pop\n      pop\n      pop\n      pop\n      jump\t// out\n        /* \"#utility.yul\":7:84   */\n    tag_23:\n        /* \"#utility.yul\":44:51   */\n      0x00\n        /* \"#utility.yul\":73:78   */\n      dup2\n        /* \"#utility.yul\":62:78   */\n      swap1\n      pop\n        /* \"#utility.yul\":7:84   */\n      swap2\n      swap1\n      pop\n      jump\t// out\n        /* \"#utility.yul\":90:208   */\n    tag_24:\n        /* \"#utility.yul\":177:201   */\n      tag_50\n        /* \"#utility.yul\":195:200   */\n      dup2\n        /* \"#utility.yul\":177:201   */\n      tag_23\n      jump\t// in\n    tag_50:\n        /* \"#utility.yul\":172:175   */\n      dup3\n        /* \"#utility.yul\":165:202   */\n      mstore\n        /* \"#utility.yul\":90:208   */\n      pop\n      pop\n      jump\t// out\n        /* \"#utility.yul\":214:436   */\n    tag_9:\n        /* \"#utility.yul\":307:311   */\n      0x00\n        /* \"#utility.yul\":345:347   */\n      0x20\n        /* \"#utility.yul\":334:343   */\n      dup3\n        /* \"#utility.yul\":330:348   */\n      add\n        /* \"#utility.yul\":322:348   */\n      swap1\n      pop\n        /* \"#utility.yul\":358:429   */\n      tag_52\n        /* \"#utility.yul\":426:427   */\n      0x00\n        /* \"#utility.yul\":415:424   */\n      dup4\n        /* \"#utility.yul\":411:428   */\n      add\n        /* \"#utility.yul\":402:408   */\n      dup5\n        /* \"#utility.yul\":358:429   */\n      tag_24\n      jump\t// in\n    tag_52:\n        /* \"#utility.yul\":214:436   */\n      swap3\n      swap2\n      pop\n      pop\n      jump\t// out\n        /* \"#utility.yul\":442:517   */\n    tag_25:\n        /* \"#utility.yul\":475:481   */\n      0x00\n        /* \"#utility.yul\":508:510   */\n      0x40\n        /* \"#utility.yul\":502:511   */\n      mload\n        /* \"#utility.yul\":492:511   */\n      swap1\n      pop\n        /* \"#utility.yul\":442:517   */\n      swap1\n      jump\t// out\n        /* \"#utility.yul\":523:640   */\n    tag_26:\n        /* \"#utility.yul\":632:633   */\n      0x00\n        /* \"#utility.yul\":629:630   */\n      dup1\n        /* \"#utility.yul\":622:634   */\n      revert\n        /* \"#utility.yul\":646:763   */\n    tag_27:\n        /* \"#utility.yul\":755:756   */\n      0x00\n        /* \"#utility.yul\":752:753   */\n      dup1\n        /* \"#utility.yul\":745:757   */\n      revert\n        /* \"#utility.yul\":769:891   */\n    tag_28:\n        /* \"#utility.yul\":842:866   */\n      tag_57\n        /* \"#utility.yul\":860:865   */\n      dup2\n        /* \"#utility.yul\":842:866   */\n      tag_23\n      jump\t// in\n    tag_57:\n        /* \"#utility.yul\":835:840   */\n      dup2\n        /* \"#utility.yul\":832:867   */\n      eq\n        /* \"#utility.yul\":822:885   */\n      tag_58\n      jumpi\n        /* \"#utility.yul\":881:882   */\n      0x00\n        /* \"#utility.yul\":878:879   */\n      dup1\n        /* \"#utility.yul\":871:883   */\n      revert\n        /* \"#utility.yul\":822:885   */\n    tag_58:\n        /* \"#utility.yul\":769:891   */\n      pop\n      jump\t// out\n        /* \"#utility.yul\":897:1036   */\n    tag_29:\n        /* \"#utility.yul\":943:948   */\n      0x00\n        /* \"#utility.yul\":981:987   */\n      dup2\n        /* \"#utility.yul\":968:988   */\n      calldataload\n        /* \"#utility.yul\":959:988   */\n      swap1\n      pop\n        /* \"#utility.yul\":997:1030   */\n      tag_60\n        /* \"#utility.yul\":1024:1029   */\n      dup2\n        /* \"#utility.yul\":997:1030   */\n      tag_28\n      jump\t// in\n    tag_60:\n        /* \"#utility.yul\":897:1036   */\n      swap3\n      swap2\n      pop\n      pop\n      jump\t// out\n        /* \"#utility.yul\":1042:1168   */\n    tag_30:\n        /* \"#utility.yul\":1079:1086   */\n      0x00\n        /* \"#utility.yul\":1119:1161   */\n      0xffffffffffffffffffffffffffffffffffffffff\n        /* \"#utility.yul\":1112:1117   */\n      dup3\n        /* \"#utility.yul\":1108:1162   */\n      and\n        /* \"#utility.yul\":1097:1162   */\n      swap1\n      pop\n        /* \"#utility.yul\":1042:1168   */\n      swap2\n      swap1\n      pop\n      jump\t// out\n        /* \"#utility.yul\":1174:1270   */\n    tag_31:\n        /* \"#utility.yul\":1211:1218   */\n      0x00\n        /* \"#utility.yul\":1240:1264   */\n      tag_63\n        /* \"#utility.yul\":1258:1263   */\n      dup3\n        /* \"#utility.yul\":1240:1264   */\n      tag_30\n      jump\t// in\n    tag_63:\n        /* \"#utility.yul\":1229:1264   */\n      swap1\n      pop\n        /* \"#utility.yul\":1174:1270   */\n      swap2\n      swap1\n      pop\n      jump\t// out\n        /* \"#utility.yul\":1276:1398   */\n    tag_32:\n        /* \"#utility.yul\":1349:1373   */\n      tag_65\n        /* \"#utility.yul\":1367:1372   */\n      dup2\n        /* \"#utility.yul\":1349:1373   */\n      tag_31\n      jump\t// in\n    tag_65:\n        /* \"#utility.yul\":1342:1347   */\n      dup2\n        /* \"#utility.yul\":1339:1374   */\n      eq\n        /* \"#utility.yul\":1329:1392   */\n      tag_66\n      jumpi\n        /* \"#utility.yul\":1388:1389   */\n      0x00\n        /* \"#utility.yul\":1385:1386   */\n      dup1\n        /* \"#utility.yul\":1378:1390   */\n      revert\n        /* \"#utility.yul\":1329:1392   */\n    tag_66:\n        /* \"#utility.yul\":1276:1398   */\n      pop\n      jump\t// out\n        /* \"#utility.yul\":1404:1543   */\n    tag_33:\n        /* \"#utility.yul\":1450:1455   */\n      0x00\n        /* \"#utility.yul\":1488:1494   */\n      dup2\n        /* \"#utility.yul\":1475:1495   */\n      calldataload\n        /* \"#utility.yul\":1466:1495   */\n      swap1\n      pop\n        /* \"#utility.yul\":1504:1537   */\n      tag_68\n        /* \"#utility.yul\":1531:1536   */\n      dup2\n        /* \"#utility.yul\":1504:1537   */\n      tag_32\n      jump\t// in\n    tag_68:\n        /* \"#utility.yul\":1404:1543   */\n      swap3\n      swap2\n      pop\n      pop\n      jump\t// out\n        /* \"#utility.yul\":1549:1639   */\n    tag_34:\n        /* \"#utility.yul\":1583:1590   */\n      0x00\n        /* \"#utility.yul\":1626:1631   */\n      dup2\n        /* \"#utility.yul\":1619:1632   */\n      iszero\n        /* \"#utility.yul\":1612:1633   */\n      iszero\n        /* \"#utility.yul\":1601:1633   */\n      swap1\n      pop\n        /* \"#utility.yul\":1549:1639   */\n      swap2\n      swap1\n      pop\n      jump\t// out\n        /* \"#utility.yul\":1645:1761   */\n    tag_35:\n        /* \"#utility.yul\":1715:1736   */\n      tag_71\n        /* \"#utility.yul\":1730:1735   */\n      dup2\n        /* \"#utility.yul\":1715:1736   */\n      tag_34\n      jump\t// in\n    tag_71:\n        /* \"#utility.yul\":1708:1713   */\n      dup2\n        /* \"#utility.yul\":1705:1737   */\n      eq\n        /* \"#utility.yul\":1695:1755   */\n      tag_72\n      jumpi\n        /* \"#utility.yul\":1751:1752   */\n      0x00\n        /* \"#utility.yul\":1748:1749   */\n      dup1\n        /* \"#utility.yul\":1741:1753   */\n      revert\n        /* \"#utility.yul\":1695:1755   */\n    tag_72:\n        /* \"#utility.yul\":1645:1761   */\n      pop\n      jump\t// out\n        /* \"#utility.yul\":1767:1900   */\n    tag_36:\n        /* \"#utility.yul\":1810:1815   */\n      0x00\n        /* \"#utility.yul\":1848:1854   */\n      dup2\n        /* \"#utility.yul\":1835:1855   */\n      calldataload\n        /* \"#utility.yul\":1826:1855   */\n      swap1\n      pop\n        /* \"#utility.yul\":1864:1894   */\n      tag_74\n        /* \"#utility.yul\":1888:1893   */\n      dup2\n        /* \"#utility.yul\":1864:1894   */\n      tag_35\n      jump\t// in\n    tag_74:\n        /* \"#utility.yul\":1767:1900   */\n      swap3\n      swap2\n      pop\n      pop\n      jump\t// out\n        /* \"#utility.yul\":1906:2023   */\n    tag_37:\n        /* \"#utility.yul\":2015:2016   */\n      0x00\n        /* \"#utility.yul\":2012:2013   */\n      dup1\n        /* \"#utility.yul\":2005:2017   */\n      revert\n        /* \"#utility.yul\":2029:2146   */\n    tag_38:\n        /* \"#utility.yul\":2138:2139   */\n      0x00\n        /* \"#utility.yul\":2135:2136   */\n      dup1\n        /* \"#utility.yul\":2128:2140   */\n      revert\n        /* \"#utility.yul\":2152:2254   */\n    tag_39:\n        /* \"#utility.yul\":2193:2199   */\n      0x00\n        /* \"#utility.yul\":2244:2246   */\n      0x1f\n        /* \"#utility.yul\":2240:2247   */\n      not\n        /* \"#utility.yul\":2235:2237   */\n      0x1f\n        /* \"#utility.yul\":2228:2233   */\n      dup4\n        /* \"#utility.yul\":2224:2238   */\n      add\n        /* \"#utility.yul\":2220:2248   */\n      and\n        /* \"#utility.yul\":2210:2248   */\n      swap1\n      pop\n        /* \"#utility.yul\":2152:2254   */\n      swap2\n      swap1\n      pop\n      jump\t// out\n        /* \"#utility.yul\":2260:2440   */\n    tag_40:\n        /* \"#utility.yul\":2308:2385   */\n      0x4e487b7100000000000000000000000000000000000000000000000000000000\n        /* \"#utility.yul\":2305:2306   */\n      0x00\n        /* \"#utility.yul\":2298:2386   */\n      mstore\n        /* \"#utility.yul\":2405:2409   */\n      0x41\n        /* \"#utility.yul\":2402:2403   */\n      0x04\n        /* \"#utility.yul\":2395:2410   */\n      mstore\n        /* \"#utility.yul\":2429:2433   */\n      0x24\n        /* \"#utility.yul\":2426:2427   */\n      0x00\n        /* \"#utility.yul\":2419:2434   */\n      revert\n        /* \"#utility.yul\":2446:2727   */\n    tag_41:\n        /* \"#utility.yul\":2529:2556   */\n      tag_80\n        /* \"#utility.yul\":2551:2555   */\n      dup3\n        /* \"#utility.yul\":2529:2556   */\n      tag_39\n      jump\t// in\n    tag_80:\n        /* \"#utility.yul\":2521:2527   */\n      dup2\n        /* \"#utility.yul\":2517:2557   */\n      add\n        /* \"#utility.yul\":2659:2665   */\n      dup2\n        /* \"#utility.yul\":2647:2657   */\n      dup2\n        /* \"#utility.yul\":2644:2666   */\n      lt\n        /* \"#utility.yul\":2623:2641   */\n      0xffffffffffffffff\n        /* \"#utility.yul\":2611:2621   */\n      dup3\n        /* \"#utility.yul\":2608:2642   */\n      gt\n        /* \"#utility.yul\":2605:2667   */\n      or\n        /* \"#utility.yul\":2602:2690   */\n      iszero\n      tag_81\n      jumpi\n        /* \"#utility.yul\":2670:2688   */\n      tag_82\n      tag_40\n      jump\t// in\n    tag_82:\n        /* \"#utility.yul\":2602:2690   */\n    tag_81:\n        /* \"#utility.yul\":2710:2720   */\n      dup1\n        /* \"#utility.yul\":2706:2708   */\n      0x40\n        /* \"#utility.yul\":2699:2721   */\n      mstore\n        /* \"#utility.yul\":2489:2727   */\n      pop\n        /* \"#utility.yul\":2446:2727   */\n      pop\n      pop\n      jump\t// out\n        /* \"#utility.yul\":2733:2862   */\n    tag_42:\n        /* \"#utility.yul\":2767:2773   */\n      0x00\n        /* \"#utility.yul\":2794:2814   */\n      tag_84\n      tag_25\n      jump\t// in\n    tag_84:\n        /* \"#utility.yul\":2784:2814   */\n      swap1\n      pop\n        /* \"#utility.yul\":2823:2856   */\n      tag_85\n        /* \"#utility.yul\":2851:2855   */\n      dup3\n        /* \"#utility.yul\":2843:2849   */\n      dup3\n        /* \"#utility.yul\":2823:2856   */\n      tag_41\n      jump\t// in\n    tag_85:\n        /* \"#utility.yul\":2733:2862   */\n      swap2\n      swap1\n      pop\n      jump\t// out\n        /* \"#utility.yul\":2868:3176   */\n    tag_43:\n        /* \"#utility.yul\":2930:2934   */\n      0x00\n        /* \"#utility.yul\":3020:3038   */\n      0xffffffffffffffff\n        /* \"#utility.yul\":3012:3018   */\n      dup3\n        /* \"#utility.yul\":3009:3039   */\n      gt\n        /* \"#utility.yul\":3006:3062   */\n      iszero\n      tag_87\n      jumpi\n        /* \"#utility.yul\":3042:3060   */\n      tag_88\n      tag_40\n      jump\t// in\n    tag_88:\n        /* \"#utility.yul\":3006:3062   */\n    tag_87:\n        /* \"#utility.yul\":3080:3109   */\n      tag_89\n        /* \"#utility.yul\":3102:3108   */\n      dup3\n        /* \"#utility.yul\":3080:3109   */\n      tag_39\n      jump\t// in\n    tag_89:\n        /* \"#utility.yul\":3072:3109   */\n      swap1\n      pop\n        /* \"#utility.yul\":3164:3168   */\n      0x20\n        /* \"#utility.yul\":3158:3162   */\n      dup2\n        /* \"#utility.yul\":3154:3169   */\n      add\n        /* \"#utility.yul\":3146:3169   */\n      swap1\n      pop\n        /* \"#utility.yul\":2868:3176   */\n      swap2\n      swap1\n      pop\n      jump\t// out\n        /* \"#utility.yul\":3182:3330   */\n    tag_44:\n        /* \"#utility.yul\":3280:3286   */\n      dup3\n        /* \"#utility.yul\":3275:3278   */\n      dup2\n        /* \"#utility.yul\":3270:3273   */\n      dup4\n        /* \"#utility.yul\":3257:3287   */\n      calldatacopy\n        /* \"#utility.yul\":3321:3322   */\n      0x00\n        /* \"#utility.yul\":3312:3318   */\n      dup4\n        /* \"#utility.yul\":3307:3310   */\n      dup4\n        /* \"#utility.yul\":3303:3319   */\n      add\n        /* \"#utility.yul\":3296:3323   */\n      mstore\n        /* \"#utility.yul\":3182:3330   */\n      pop\n      pop\n      pop\n      jump\t// out\n        /* \"#utility.yul\":3336:3761   */\n    tag_45:\n        /* \"#utility.yul\":3414:3419   */\n      0x00\n        /* \"#utility.yul\":3439:3505   */\n      tag_92\n        /* \"#utility.yul\":3455:3504   */\n      tag_93\n        /* \"#utility.yul\":3497:3503   */\n      dup5\n        /* \"#utility.yul\":3455:3504   */\n      tag_43\n      jump\t// in\n    tag_93:\n        /* \"#utility.yul\":3439:3505   */\n      tag_42\n      jump\t// in\n    tag_92:\n        /* \"#utility.yul\":3430:3505   */\n      swap1\n      pop\n        /* \"#utility.yul\":3528:3534   */\n      dup3\n        /* \"#utility.yul\":3521:3526   */\n      dup2\n        /* \"#utility.yul\":3514:3535   */\n      mstore\n        /* \"#utility.yul\":3566:3570   */\n      0x20\n        /* \"#utility.yul\":3559:3564   */\n      dup2\n        /* \"#utility.yul\":3555:3571   */\n      add\n        /* \"#utility.yul\":3604:3607   */\n      dup5\n        /* \"#utility.yul\":3595:3601   */\n      dup5\n        /* \"#utility.yul\":3590:3593   */\n      dup5\n        /* \"#utility.yul\":3586:3602   */\n      add\n        /* \"#utility.yul\":3583:3608   */\n      gt\n        /* \"#utility.yul\":3580:3692   */\n      iszero\n      tag_94\n      jumpi\n        /* \"#utility.yul\":3611:3690   */\n      tag_95\n      tag_38\n      jump\t// in\n    tag_95:\n        /* \"#utility.yul\":3580:3692   */\n    tag_94:\n        /* \"#utility.yul\":3701:3755   */\n      tag_96\n        /* \"#utility.yul\":3748:3754   */\n      dup5\n        /* \"#utility.yul\":3743:3746   */\n      dup3\n        /* \"#utility.yul\":3738:3741   */\n      dup6\n        /* \"#utility.yul\":3701:3755   */\n      tag_44\n      jump\t// in\n    tag_96:\n        /* \"#utility.yul\":3420:3761   */\n      pop\n        /* \"#utility.yul\":3336:3761   */\n      swap4\n      swap3\n      pop\n      pop\n      pop\n      jump\t// out\n        /* \"#utility.yul\":3781:4121   */\n    tag_46:\n        /* \"#utility.yul\":3837:3842   */\n      0x00\n        /* \"#utility.yul\":3886:3889   */\n      dup3\n        /* \"#utility.yul\":3879:3883   */\n      0x1f\n        /* \"#utility.yul\":3871:3877   */\n      dup4\n        /* \"#utility.yul\":3867:3884   */\n      add\n        /* \"#utility.yul\":3863:3890   */\n      slt\n        /* \"#utility.yul\":3853:3975   */\n      tag_98\n      jumpi\n        /* \"#utility.yul\":3894:3973   */\n      tag_99\n      tag_37\n      jump\t// in\n    tag_99:\n        /* \"#utility.yul\":3853:3975   */\n    tag_98:\n        /* \"#utility.yul\":4011:4017   */\n      dup2\n        /* \"#utility.yul\":3998:4018   */\n      calldataload\n        /* \"#utility.yul\":4036:4115   */\n      tag_100\n        /* \"#utility.yul\":4111:4114   */\n      dup5\n        /* \"#utility.yul\":4103:4109   */\n      dup3\n        /* \"#utility.yul\":4096:4100   */\n      0x20\n        /* \"#utility.yul\":4088:4094   */\n      dup7\n        /* \"#utility.yul\":4084:4101   */\n      add\n        /* \"#utility.yul\":4036:4115   */\n      tag_45\n      jump\t// in\n    tag_100:\n        /* \"#utility.yul\":4027:4115   */\n      swap2\n      pop\n        /* \"#utility.yul\":3843:4121   */\n      pop\n        /* \"#utility.yul\":3781:4121   */\n      swap3\n      swap2\n      pop\n      pop\n      jump\t// out\n        /* \"#utility.yul\":4127:5358   */\n    tag_15:\n        /* \"#utility.yul\":4238:4244   */\n      0x00\n        /* \"#utility.yul\":4246:4252   */\n      dup1\n        /* \"#utility.yul\":4254:4260   */\n      0x00\n        /* \"#utility.yul\":4262:4268   */\n      dup1\n        /* \"#utility.yul\":4270:4276   */\n      0x00\n        /* \"#utility.yul\":4278:4284   */\n      dup1\n        /* \"#utility.yul\":4327:4330   */\n      0xc0\n        /* \"#utility.yul\":4315:4324   */\n      dup8\n        /* \"#utility.yul\":4306:4313   */\n      dup10\n        /* \"#utility.yul\":4302:4325   */\n      sub\n        /* \"#utility.yul\":4298:4331   */\n      slt\n        /* \"#utility.yul\":4295:4415   */\n      iszero\n      tag_102\n      jumpi\n        /* \"#utility.yul\":4334:4413   */\n      tag_103\n      tag_26\n      jump\t// in\n    tag_103:\n        /* \"#utility.yul\":4295:4415   */\n    tag_102:\n        /* \"#utility.yul\":4454:4455   */\n      0x00\n        /* \"#utility.yul\":4479:4532   */\n      tag_104\n        /* \"#utility.yul\":4524:4531   */\n      dup10\n        /* \"#utility.yul\":4515:4521   */\n      dup3\n        /* \"#utility.yul\":4504:4513   */\n      dup11\n        /* \"#utility.yul\":4500:4522   */\n      add\n        /* \"#utility.yul\":4479:4532   */\n      tag_29\n      jump\t// in\n    tag_104:\n        /* \"#utility.yul\":4469:4532   */\n      swap7\n      pop\n        /* \"#utility.yul\":4425:4542   */\n      pop\n        /* \"#utility.yul\":4581:4583   */\n      0x20\n        /* \"#utility.yul\":4607:4660   */\n      tag_105\n        /* \"#utility.yul\":4652:4659   */\n      dup10\n        /* \"#utility.yul\":4643:4649   */\n      dup3\n        /* \"#utility.yul\":4632:4641   */\n      dup11\n        /* \"#utility.yul\":4628:4650   */\n      add\n        /* \"#utility.yul\":4607:4660   */\n      tag_29\n      jump\t// in\n    tag_105:\n        /* \"#utility.yul\":4597:4660   */\n      swap6\n      pop\n        /* \"#utility.yul\":4552:4670   */\n      pop\n        /* \"#utility.yul\":4709:4711   */\n      0x40\n        /* \"#utility.yul\":4735:4788   */\n      tag_106\n        /* \"#utility.yul\":4780:4787   */\n      dup10\n        /* \"#utility.yul\":4771:4777   */\n      dup3\n        /* \"#utility.yul\":4760:4769   */\n      dup11\n        /* \"#utility.yul\":4756:4778   */\n      add\n        /* \"#utility.yul\":4735:4788   */\n      tag_29\n      jump\t// in\n    tag_106:\n        /* \"#utility.yul\":4725:4788   */\n      swap5\n      pop\n        /* \"#utility.yul\":4680:4798   */\n      pop\n        /* \"#utility.yul\":4837:4839   */\n      0x60\n        /* \"#utility.yul\":4863:4916   */\n      tag_107\n        /* \"#utility.yul\":4908:4915   */\n      dup10\n        /* \"#utility.yul\":4899:4905   */\n      dup3\n        /* \"#utility.yul\":4888:4897   */\n      dup11\n        /* \"#utility.yul\":4884:4906   */\n      add\n        /* \"#utility.yul\":4863:4916   */\n      tag_33\n      jump\t// in\n    tag_107:\n        /* \"#utility.yul\":4853:4916   */\n      swap4\n      pop\n        /* \"#utility.yul\":4808:4926   */\n      pop\n        /* \"#utility.yul\":4965:4968   */\n      0x80\n        /* \"#utility.yul\":4992:5042   */\n      tag_108\n        /* \"#utility.yul\":5034:5041   */\n      dup10\n        /* \"#utility.yul\":5025:5031   */\n      dup3\n        /* \"#utility.yul\":5014:5023   */\n      dup11\n        /* \"#utility.yul\":5010:5032   */\n      add\n        /* \"#utility.yul\":4992:5042   */\n      tag_36\n      jump\t// in\n    tag_108:\n        /* \"#utility.yul\":4982:5042   */\n      swap3\n      pop\n        /* \"#utility.yul\":4936:5052   */\n      pop\n        /* \"#utility.yul\":5119:5122   */\n      0xa0\n        /* \"#utility.yul\":5108:5117   */\n      dup8\n        /* \"#utility.yul\":5104:5123   */\n      add\n        /* \"#utility.yul\":5091:5124   */\n      calldataload\n        /* \"#utility.yul\":5151:5169   */\n      0xffffffffffffffff\n        /* \"#utility.yul\":5143:5149   */\n      dup2\n        /* \"#utility.yul\":5140:5170   */\n      gt\n        /* \"#utility.yul\":5137:5254   */\n      iszero\n      tag_109\n      jumpi\n        /* \"#utility.yul\":5173:5252   */\n      tag_110\n      tag_27\n      jump\t// in\n    tag_110:\n        /* \"#utility.yul\":5137:5254   */\n    tag_109:\n        /* \"#utility.yul\":5278:5341   */\n      tag_111\n        /* \"#utility.yul\":5333:5340   */\n      dup10\n        /* \"#utility.yul\":5324:5330   */\n      dup3\n        /* \"#utility.yul\":5313:5322   */\n      dup11\n        /* \"#utility.yul\":5309:5331   */\n      add\n        /* \"#utility.yul\":5278:5341   */\n      tag_46\n      jump\t// in\n    tag_111:\n        /* \"#utility.yul\":5268:5341   */\n      swap2\n      pop\n        /* \"#utility.yul\":5062:5351   */\n      pop\n        /* \"#utility.yul\":4127:5358   */\n      swap3\n      swap6\n      pop\n      swap3\n      swap6\n      pop\n      swap3\n      swap6\n      jump\t// out\n\n    auxdata: 0xa2646970667358221220c5628f0f16327363212f5b72811f136450f083c39e3bd17f326a4551f1b20b2064736f6c634300081a0033\n}\n",
				"bytecode": {
					"linkReferences": {},
					"object": "6080604052348015600e575f80fd5b506104668061001c5f395ff3fe608060405234801561000f575f80fd5b506004361061003f575f3560e01c806372057987146100435780639a7846b914610061578063cf7853351461007f575b5f80fd5b61004b6100af565b604051610058919061016c565b60405180910390f35b6100696100fc565b604051610076919061016c565b60405180910390f35b6100996004803603810190610094919061038b565b610149565b6040516100a6919061016c565b60405180910390f35b5f6100f76001600260035f60016040518060400160405280600181526020017f6300000000000000000000000000000000000000000000000000000000000000815250610149565b905090565b5f6101446001600260035f60016040518060400160405280600181526020017f6300000000000000000000000000000000000000000000000000000000000000815250610149565b905090565b5f9695505050505050565b5f819050919050565b61016681610154565b82525050565b5f60208201905061017f5f83018461015d565b92915050565b5f604051905090565b5f80fd5b5f80fd5b61019f81610154565b81146101a9575f80fd5b50565b5f813590506101ba81610196565b92915050565b5f73ffffffffffffffffffffffffffffffffffffffff82169050919050565b5f6101e9826101c0565b9050919050565b6101f9816101df565b8114610203575f80fd5b50565b5f81359050610214816101f0565b92915050565b5f8115159050919050565b61022e8161021a565b8114610238575f80fd5b50565b5f8135905061024981610225565b92915050565b5f80fd5b5f80fd5b5f601f19601f8301169050919050565b7f4e487b71000000000000000000000000000000000000000000000000000000005f52604160045260245ffd5b61029d82610257565b810181811067ffffffffffffffff821117156102bc576102bb610267565b5b80604052505050565b5f6102ce610185565b90506102da8282610294565b919050565b5f67ffffffffffffffff8211156102f9576102f8610267565b5b61030282610257565b9050602081019050919050565b828183375f83830152505050565b5f61032f61032a846102df565b6102c5565b90508281526020810184848401111561034b5761034a610253565b5b61035684828561030f565b509392505050565b5f82601f8301126103725761037161024f565b5b813561038284826020860161031d565b91505092915050565b5f805f805f8060c087890312156103a5576103a461018e565b5b5f6103b289828a016101ac565b96505060206103c389828a016101ac565b95505060406103d489828a016101ac565b94505060606103e589828a01610206565b93505060806103f689828a0161023b565b92505060a087013567ffffffffffffffff81111561041757610416610192565b5b61042389828a0161035e565b915050929550929550929556fea2646970667358221220c5628f0f16327363212f5b72811f136450f083c39e3bd17f326a4551f1b20b2064736f6c634300081a0033",
					"opcodes": "PUSH1 0x80 PUSH1 0x40 MSTORE CALLVALUE DUP1 ISZERO PUSH1 0xE JUMPI PUSH0 DUP1 REVERT JUMPDEST POP PUSH2 0x466 DUP1 PUSH2 0x1C PUSH0 CODECOPY PUSH0 RETURN INVALID PUSH1 0x80 PUSH1 0x40 MSTORE CALLVALUE DUP1 ISZERO PUSH2 0xF JUMPI PUSH0 DUP1 REVERT JUMPDEST POP PUSH1 0x4 CALLDATASIZE LT PUSH2 0x3F JUMPI PUSH0 CALLDATALOAD PUSH1 0xE0 SHR DUP1 PUSH4 0x72057987 EQ PUSH2 0x43 JUMPI DUP1 PUSH4 0x9A7846B9 EQ PUSH2 0x61 JUMPI DUP1 PUSH4 0xCF785335 EQ PUSH2 0x7F JUMPI JUMPDEST PUSH0 DUP1 REVERT JUMPDEST PUSH2 0x4B PUSH2 0xAF JUMP JUMPDEST PUSH1 0x40 MLOAD PUSH2 0x58 SWAP2 SWAP1 PUSH2 0x16C JUMP JUMPDEST PUSH1 0x40 MLOAD DUP1 SWAP2 SUB SWAP1 RETURN JUMPDEST PUSH2 0x69 PUSH2 0xFC JUMP JUMPDEST PUSH1 0x40 MLOAD PUSH2 0x76 SWAP2 SWAP1 PUSH2 0x16C JUMP JUMPDEST PUSH1 0x40 MLOAD DUP1 SWAP2 SUB SWAP1 RETURN JUMPDEST PUSH2 0x99 PUSH1 0x4 DUP1 CALLDATASIZE SUB DUP2 ADD SWAP1 PUSH2 0x94 SWAP2 SWAP1 PUSH2 0x38B JUMP JUMPDEST PUSH2 0x149 JUMP JUMPDEST PUSH1 0x40 MLOAD PUSH2 0xA6 SWAP2 SWAP1 PUSH2 0x16C JUMP JUMPDEST PUSH1 0x40 MLOAD DUP1 SWAP2 SUB SWAP1 RETURN JUMPDEST PUSH0 PUSH2 0xF7 PUSH1 0x1 PUSH1 0x2 PUSH1 0x3 PUSH0 PUSH1 0x1 PUSH1 0x40 MLOAD DUP1 PUSH1 0x40 ADD PUSH1 0x40 MSTORE DUP1 PUSH1 0x1 DUP2 MSTORE PUSH1 0x20 ADD PUSH32 0x6300000000000000000000000000000000000000000000000000000000000000 DUP2 MSTORE POP PUSH2 0x149 JUMP JUMPDEST SWAP1 POP SWAP1 JUMP JUMPDEST PUSH0 PUSH2 0x144 PUSH1 0x1 PUSH1 0x2 PUSH1 0x3 PUSH0 PUSH1 0x1 PUSH1 0x40 MLOAD DUP1 PUSH1 0x40 ADD PUSH1 0x40 MSTORE DUP1 PUSH1 0x1 DUP2 MSTORE PUSH1 0x20 ADD PUSH32 0x6300000000000000000000000000000000000000000000000000000000000000 DUP2 MSTORE POP PUSH2 0x149 JUMP JUMPDEST SWAP1 POP SWAP1 JUMP JUMPDEST PUSH0 SWAP7 SWAP6 POP POP POP POP POP POP JUMP JUMPDEST PUSH0 DUP2 SWAP1 POP SWAP2 SWAP1 POP JUMP JUMPDEST PUSH2 0x166 DUP2 PUSH2 0x154 JUMP JUMPDEST DUP3 MSTORE POP POP JUMP JUMPDEST PUSH0 PUSH1 0x20 DUP3 ADD SWAP1 POP PUSH2 0x17F PUSH0 DUP4 ADD DUP5 PUSH2 0x15D JUMP JUMPDEST SWAP3 SWAP2 POP POP JUMP JUMPDEST PUSH0 PUSH1 0x40 MLOAD SWAP1 POP SWAP1 JUMP JUMPDEST PUSH0 DUP1 REVERT JUMPDEST PUSH0 DUP1 REVERT JUMPDEST PUSH2 0x19F DUP2 PUSH2 0x154 JUMP JUMPDEST DUP2 EQ PUSH2 0x1A9 JUMPI PUSH0 DUP1 REVERT JUMPDEST POP JUMP JUMPDEST PUSH0 DUP2 CALLDATALOAD SWAP1 POP PUSH2 0x1BA DUP2 PUSH2 0x196 JUMP JUMPDEST SWAP3 SWAP2 POP POP JUMP JUMPDEST PUSH0 PUSH20 0xFFFFFFFFFFFFFFFFFFFFFFFFFFFFFFFFFFFFFFFF DUP3 AND SWAP1 POP SWAP2 SWAP1 POP JUMP JUMPDEST PUSH0 PUSH2 0x1E9 DUP3 PUSH2 0x1C0 JUMP JUMPDEST SWAP1 POP SWAP2 SWAP1 POP JUMP JUMPDEST PUSH2 0x1F9 DUP2 PUSH2 0x1DF JUMP JUMPDEST DUP2 EQ PUSH2 0x203 JUMPI PUSH0 DUP1 REVERT JUMPDEST POP JUMP JUMPDEST PUSH0 DUP2 CALLDATALOAD SWAP1 POP PUSH2 0x214 DUP2 PUSH2 0x1F0 JUMP JUMPDEST SWAP3 SWAP2 POP POP JUMP JUMPDEST PUSH0 DUP2 ISZERO ISZERO SWAP1 POP SWAP2 SWAP1 POP JUMP JUMPDEST PUSH2 0x22E DUP2 PUSH2 0x21A JUMP JUMPDEST DUP2 EQ PUSH2 0x238 JUMPI PUSH0 DUP1 REVERT JUMPDEST POP JUMP JUMPDEST PUSH0 DUP2 CALLDATALOAD SWAP1 POP PUSH2 0x249 DUP2 PUSH2 0x225 JUMP JUMPDEST SWAP3 SWAP2 POP POP JUMP JUMPDEST PUSH0 DUP1 REVERT JUMPDEST PUSH0 DUP1 REVERT JUMPDEST PUSH0 PUSH1 0x1F NOT PUSH1 0x1F DUP4 ADD AND SWAP1 POP SWAP2 SWAP1 POP JUMP JUMPDEST PUSH32 0x4E487B7100000000000000000000000000000000000000000000000000000000 PUSH0 MSTORE PUSH1 0x41 PUSH1 0x4 MSTORE PUSH1 0x24 PUSH0 REVERT JUMPDEST PUSH2 0x29D DUP3 PUSH2 0x257 JUMP JUMPDEST DUP2 ADD DUP2 DUP2 LT PUSH8 0xFFFFFFFFFFFFFFFF DUP3 GT OR ISZERO PUSH2 0x2BC JUMPI PUSH2 0x2BB PUSH2 0x267 JUMP JUMPDEST JUMPDEST DUP1 PUSH1 0x40 MSTORE POP POP POP JUMP JUMPDEST PUSH0 PUSH2 0x2CE PUSH2 0x185 JUMP JUMPDEST SWAP1 POP PUSH2 0x2DA DUP3 DUP3 PUSH2 0x294 JUMP JUMPDEST SWAP2 SWAP1 POP JUMP JUMPDEST PUSH0 PUSH8 0xFFFFFFFFFFFFFFFF DUP3 GT ISZERO PUSH2 0x2F9 JUMPI PUSH2 0x2F8 PUSH2 0x267 JUMP JUMPDEST JUMPDEST PUSH2 0x302 DUP3 PUSH2 0x257 JUMP JUMPDEST SWAP1 POP PUSH1 0x20 DUP2 ADD SWAP1 POP SWAP2 SWAP1 POP JUMP JUMPDEST DUP3 DUP2 DUP4 CALLDATACOPY PUSH0 DUP4 DUP4 ADD MSTORE POP POP POP JUMP JUMPDEST PUSH0 PUSH2 0x32F PUSH2 0x32A DUP5 PUSH2 0x2DF JUMP JUMPDEST PUSH2 0x2C5 JUMP JUMPDEST SWAP1 POP DUP3 DUP2 MSTORE PUSH1 0x20 DUP2 ADD DUP5 DUP5 DUP5 ADD GT ISZERO PUSH2 0x34B JUMPI PUSH2 0x34A PUSH2 0x253 JUMP JUMPDEST JUMPDEST PUSH2 0x356 DUP5 DUP3 DUP6 PUSH2 0x30F JUMP JUMPDEST POP SWAP4 SWAP3 POP POP POP JUMP JUMPDEST PUSH0 DUP3 PUSH1 0x1F DUP4 ADD SLT PUSH2 0x372 JUMPI PUSH2 0x371 PUSH2 0x24F JUMP JUMPDEST JUMPDEST DUP2 CALLDATALOAD PUSH2 0x382 DUP5 DUP3 PUSH1 0x20 DUP7 ADD PUSH2 0x31D JUMP JUMPDEST SWAP2 POP POP SWAP3 SWAP2 POP POP JUMP JUMPDEST PUSH0 DUP1 PUSH0 DUP1 PUSH0 DUP1 PUSH1 0xC0 DUP8 DUP10 SUB SLT ISZERO PUSH2 0x3A5 JUMPI PUSH2 0x3A4 PUSH2 0x18E JUMP JUMPDEST JUMPDEST PUSH0 PUSH2 0x3B2 DUP10 DUP3 DUP11 ADD PUSH2 0x1AC JUMP JUMPDEST SWAP7 POP POP PUSH1 0x20 PUSH2 0x3C3 DUP10 DUP3 DUP11 ADD PUSH2 0x1AC JUMP JUMPDEST SWAP6 POP POP PUSH1 0x40 PUSH2 0x3D4 DUP10 DUP3 DUP11 ADD PUSH2 0x1AC JUMP JUMPDEST SWAP5 POP POP PUSH1 0x60 PUSH2 0x3E5 DUP10 DUP3 DUP11 ADD PUSH2 0x206 JUMP JUMPDEST SWAP4 POP POP PUSH1 0x80 PUSH2 0x3F6 DUP10 DUP3 DUP11 ADD PUSH2 0x23B JUMP JUMPDEST SWAP3 POP POP PUSH1 0xA0 DUP8 ADD CALLDATALOAD PUSH8 0xFFFFFFFFFFFFFFFF DUP2 GT ISZERO PUSH2 0x417 JUMPI PUSH2 0x416 PUSH2 0x192 JUMP JUMPDEST JUMPDEST PUSH2 0x423 DUP10 DUP3 DUP11 ADD PUSH2 0x35E JUMP JUMPDEST SWAP2 POP POP SWAP3 SWAP6 POP SWAP3 SWAP6 POP SWAP3 SWAP6 JUMP INVALID LOG2 PUSH5 0x6970667358 0x22 SLT KECCAK256 0xC5 PUSH3 0x8F0F16 ORIGIN PUSH20 0x63212F5B72811F136450F083C39E3BD17F326A45 MLOAD CALL 0xB2 SIGNEXTEND KECCAK256 PUSH5 0x736F6C6343 STOP ADDMOD BYTE STOP CALLER "
				},
				"gasEstimates": {
					"creation": {
						"codeDepositCost": "225200",
						"executionCost": "267",
						"totalCost": "225467"
					},
					"external": {
						"callFunc()": "443",
						"callFuncWithKeyValue()": "421",
						"someFuncWithManyInput(uint256,uint256,uint256,address,bool,string)": "infinite"
					}
				},
				"methodIdentifiers": {
					"callFunc()": "9a7846b9",
					"callFuncWithKeyValue()": "72057987",
					"someFuncWithManyInput(uint256,uint256,uint256,address,bool,string)": "cf785335"
				}
			},
			"storageLayout": {
				"storage": [],
				"types": null
			},
			"userdoc": {
				"kind": "user",
				"methods": {},
				"version": 1
			}
		}
	}
}