{
	"demo/Function.sol": {
		"Function": {
			"abi": [
				{
					"inputs": [
						{
							"internalType": "uint256",
							"name": "",
							"type": "uint256"
						}
					],
					"name": "arr",
					"outputs": [
						{
							"internalType": "uint256",
							"name": "",
							"type": "uint256"
						}
					],
					"stateMutability": "view",
					"type": "function"
				},
				{
					"inputs": [],
					"name": "arrayOutput",
					"outputs": [
						{
							"internalType": "uint256[]",
							"name": "",
							"type": "uint256[]"
						}
					],
					"stateMutability": "view",
					"type": "function"
				},
				{
					"inputs": [],
					"name": "assigned",
					"outputs": [
						{
							"internalType": "uint256",
							"name": "x",
							"type": "uint256"
						},
						{
							"internalType": "bool",
							"name": "b",
							"type": "bool"
						},
						{
							"internalType": "uint256",
							"name": "y",
							"type": "uint256"
						}
					],
					"stateMutability": "pure",
					"type": "function"
				},
				{
					"inputs": [],
					"name": "destructuringAssignments",
					"outputs": [
						{
							"internalType": "uint256",
							"name": "",
							"type": "uint256"
						},
						{
							"internalType": "bool",
							"name": "",
							"type": "bool"
						},
						{
							"internalType": "uint256",
							"name": "",
							"type": "uint256"
						},
						{
							"internalType": "uint256",
							"name": "",
							"type": "uint256"
						},
						{
							"internalType": "uint256",
							"name": "",
							"type": "uint256"
						}
					],
					"stateMutability": "pure",
					"type": "function"
				},
				{
					"inputs": [],
					"name": "named",
					"outputs": [
						{
							"internalType": "uint256",
							"name": "x",
							"type": "uint256"
						},
						{
							"internalType": "bool",
							"name": "b",
							"type": "bool"
						},
						{
							"internalType": "uint256",
							"name": "y",
							"type": "uint256"
						}
					],
					"stateMutability": "pure",
					"type": "function"
				},
				{
					"inputs": [],
					"name": "returnMany",
					"outputs": [
						{
							"internalType": "uint256",
							"name": "",
							"type": "uint256"
						},
						{
							"internalType": "bool",
							"name": "",
							"type": "bool"
						},
						{
							"internalType": "uint256",
							"name": "",
							"type": "uint256"
						}
					],
					"stateMutability": "pure",
					"type": "function"
				}
			],
			"devdoc": {
				"kind": "dev",
				"methods": {},
				"version": 1
			},
			"evm": {
				"assembly": "    /* \"demo/Function.sol\":59:784  contract Function{... */\n  mstore(0x40, 0x80)\n  callvalue\n  dup1\n  iszero\n  tag_1\n  jumpi\n  0x00\n  dup1\n  revert\ntag_1:\n  pop\n  dataSize(sub_0)\n  dup1\n  dataOffset(sub_0)\n  0x00\n  codecopy\n  0x00\n  return\nstop\n\nsub_0: assembly {\n        /* \"demo/Function.sol\":59:784  contract Function{... */\n      mstore(0x40, 0x80)\n      callvalue\n      dup1\n      iszero\n      tag_1\n      jumpi\n      0x00\n      dup1\n      revert\n    tag_1:\n      pop\n      jumpi(tag_2, lt(calldatasize, 0x04))\n      shr(0xe0, calldataload(0x00))\n      dup1\n      0x1990532b\n      eq\n      tag_3\n      jumpi\n      dup1\n      0x45f907a8\n      eq\n      tag_4\n      jumpi\n      dup1\n      0x68873440\n      eq\n      tag_5\n      jumpi\n      dup1\n      0x71e5ee5f\n      eq\n      tag_6\n      jumpi\n      dup1\n      0x86887544\n      eq\n      tag_7\n      jumpi\n      dup1\n      0xadb4d990\n      eq\n      tag_8\n      jumpi\n    tag_2:\n      0x00\n      dup1\n      revert\n        /* \"demo/Function.sol\":687:777  function arrayOutput()public view returns (uint256[] memory){... */\n    tag_3:\n      tag_9\n      tag_10\n      jump\t// in\n    tag_9:\n      mload(0x40)\n      tag_11\n      swap2\n      swap1\n      tag_12\n      jump\t// in\n    tag_11:\n      mload(0x40)\n      dup1\n      swap2\n      sub\n      swap1\n      return\n        /* \"demo/Function.sol\":188:290  function named() public pure  returns (uint256 x,bool b,uint256 y){... */\n    tag_4:\n      tag_13\n      tag_14\n      jump\t// in\n    tag_13:\n      mload(0x40)\n      tag_15\n      swap4\n      swap3\n      swap2\n      swap1\n      tag_16\n      jump\t// in\n    tag_15:\n      mload(0x40)\n      dup1\n      swap2\n      sub\n      swap1\n      return\n        /* \"demo/Function.sol\":426:653  function destructuringAssignments()public  pure returns (uint256 ,bool,uint256,uint256,uint256){... */\n    tag_5:\n      tag_17\n      tag_18\n      jump\t// in\n    tag_17:\n      mload(0x40)\n      tag_19\n      swap6\n      swap5\n      swap4\n      swap3\n      swap2\n      swap1\n      tag_20\n      jump\t// in\n    tag_19:\n      mload(0x40)\n      dup1\n      swap2\n      sub\n      swap1\n      return\n        /* \"demo/Function.sol\":659:680  uint256[] public  arr */\n    tag_6:\n      tag_21\n      0x04\n      dup1\n      calldatasize\n      sub\n      dup2\n      add\n      swap1\n      tag_22\n      swap2\n      swap1\n      tag_23\n      jump\t// in\n    tag_22:\n      tag_24\n      jump\t// in\n    tag_21:\n      mload(0x40)\n      tag_25\n      swap2\n      swap1\n      tag_26\n      jump\t// in\n    tag_25:\n      mload(0x40)\n      dup1\n      swap2\n      sub\n      swap1\n      return\n        /* \"demo/Function.sol\":83:182  function returnMany()public pure  returns(uint256,bool,uint256){... */\n    tag_7:\n      tag_27\n      tag_28\n      jump\t// in\n    tag_27:\n      mload(0x40)\n      tag_29\n      swap4\n      swap3\n      swap2\n      swap1\n      tag_16\n      jump\t// in\n    tag_29:\n      mload(0x40)\n      dup1\n      swap2\n      sub\n      swap1\n      return\n        /* \"demo/Function.sol\":296:420  function assigned() public  pure  returns (uint256 x, bool b,uint256 y){... */\n    tag_8:\n      tag_30\n      tag_31\n      jump\t// in\n    tag_30:\n      mload(0x40)\n      tag_32\n      swap4\n      swap3\n      swap2\n      swap1\n      tag_16\n      jump\t// in\n    tag_32:\n      mload(0x40)\n      dup1\n      swap2\n      sub\n      swap1\n      return\n        /* \"demo/Function.sol\":687:777  function arrayOutput()public view returns (uint256[] memory){... */\n    tag_10:\n        /* \"demo/Function.sol\":730:746  uint256[] memory */\n      0x60\n        /* \"demo/Function.sol\":766:769  arr */\n      0x00\n        /* \"demo/Function.sol\":758:769  return  arr */\n      dup1\n      sload\n      dup1\n      0x20\n      mul\n      0x20\n      add\n      mload(0x40)\n      swap1\n      dup2\n      add\n      0x40\n      mstore\n      dup1\n      swap3\n      swap2\n      swap1\n      dup2\n      dup2\n      mstore\n      0x20\n      add\n      dup3\n      dup1\n      sload\n      dup1\n      iszero\n      tag_34\n      jumpi\n      0x20\n      mul\n      dup3\n      add\n      swap2\n      swap1\n      0x00\n      mstore\n      keccak256(0x00, 0x20)\n      swap1\n    tag_35:\n      dup2\n      sload\n      dup2\n      mstore\n      0x20\n      add\n      swap1\n      0x01\n      add\n      swap1\n      dup1\n      dup4\n      gt\n      tag_35\n      jumpi\n    tag_34:\n      pop\n      pop\n      pop\n      pop\n      pop\n      swap1\n      pop\n        /* \"demo/Function.sol\":687:777  function arrayOutput()public view returns (uint256[] memory){... */\n      swap1\n      jump\t// out\n        /* \"demo/Function.sol\":188:290  function named() public pure  returns (uint256 x,bool b,uint256 y){... */\n    tag_14:\n        /* \"demo/Function.sol\":227:236  uint256 x */\n      0x00\n        /* \"demo/Function.sol\":237:243  bool b */\n      dup1\n        /* \"demo/Function.sol\":244:253  uint256 y */\n      0x00\n        /* \"demo/Function.sol\":273:274  1 */\n      0x01\n        /* \"demo/Function.sol\":275:279  true */\n      dup1\n        /* \"demo/Function.sol\":280:281  2 */\n      0x02\n        /* \"demo/Function.sol\":265:282  return (1,true,2) */\n      swap3\n      pop\n      swap3\n      pop\n      swap3\n      pop\n        /* \"demo/Function.sol\":188:290  function named() public pure  returns (uint256 x,bool b,uint256 y){... */\n      swap1\n      swap2\n      swap3\n      jump\t// out\n        /* \"demo/Function.sol\":426:653  function destructuringAssignments()public  pure returns (uint256 ,bool,uint256,uint256,uint256){... */\n    tag_18:\n        /* \"demo/Function.sol\":483:490  uint256 */\n      0x00\n        /* \"demo/Function.sol\":492:496  bool */\n      dup1\n        /* \"demo/Function.sol\":497:504  uint256 */\n      0x00\n        /* \"demo/Function.sol\":505:512  uint256 */\n      dup1\n        /* \"demo/Function.sol\":513:520  uint256 */\n      0x00\n        /* \"demo/Function.sol\":533:542  uint256 i */\n      dup1\n        /* \"demo/Function.sol\":543:549  bool b */\n      0x00\n        /* \"demo/Function.sol\":551:560  uint256 j */\n      dup1\n        /* \"demo/Function.sol\":562:574  returnMany() */\n      tag_38\n        /* \"demo/Function.sol\":562:572  returnMany */\n      tag_28\n        /* \"demo/Function.sol\":562:574  returnMany() */\n      jump\t// in\n    tag_38:\n        /* \"demo/Function.sol\":532:574  (uint256 i,bool b, uint256 j)=returnMany() */\n      swap3\n      pop\n      swap3\n      pop\n      swap3\n      pop\n        /* \"demo/Function.sol\":586:595  uint256 x */\n      0x00\n        /* \"demo/Function.sol\":598:607  uint256 y */\n      dup1\n        /* \"demo/Function.sol\":610:611  4 */\n      0x04\n        /* \"demo/Function.sol\":612:613  5 */\n      0x05\n        /* \"demo/Function.sol\":614:615  6 */\n      0x06\n        /* \"demo/Function.sol\":585:616  (uint256 x,, uint256 y)=(4,5,6) */\n      swap3\n      pop\n      pop\n      swap2\n      pop\n        /* \"demo/Function.sol\":635:636  i */\n      dup5\n        /* \"demo/Function.sol\":637:638  b */\n      dup5\n        /* \"demo/Function.sol\":639:640  j */\n      dup5\n        /* \"demo/Function.sol\":641:642  x */\n      dup5\n        /* \"demo/Function.sol\":643:644  y */\n      dup5\n        /* \"demo/Function.sol\":627:645  return (i,b,j,x,y) */\n      swap10\n      pop\n      swap10\n      pop\n      swap10\n      pop\n      swap10\n      pop\n      swap10\n      pop\n      pop\n      pop\n      pop\n      pop\n      pop\n        /* \"demo/Function.sol\":426:653  function destructuringAssignments()public  pure returns (uint256 ,bool,uint256,uint256,uint256){... */\n      swap1\n      swap2\n      swap3\n      swap4\n      swap5\n      jump\t// out\n        /* \"demo/Function.sol\":659:680  uint256[] public  arr */\n    tag_24:\n      0x00\n      dup2\n      dup2\n      sload\n      dup2\n      lt\n      tag_39\n      jumpi\n      0x00\n      dup1\n      revert\n    tag_39:\n      swap1\n      0x00\n      mstore\n      keccak256(0x00, 0x20)\n      add\n      0x00\n      swap2\n      pop\n      swap1\n      pop\n      sload\n      dup2\n      jump\t// out\n        /* \"demo/Function.sol\":83:182  function returnMany()public pure  returns(uint256,bool,uint256){... */\n    tag_28:\n        /* \"demo/Function.sol\":125:132  uint256 */\n      0x00\n        /* \"demo/Function.sol\":133:137  bool */\n      dup1\n        /* \"demo/Function.sol\":138:145  uint256 */\n      0x00\n        /* \"demo/Function.sol\":165:166  1 */\n      0x01\n        /* \"demo/Function.sol\":167:171  true */\n      dup1\n        /* \"demo/Function.sol\":172:173  2 */\n      0x02\n        /* \"demo/Function.sol\":157:174  return (1,true,2) */\n      swap3\n      pop\n      swap3\n      pop\n      swap3\n      pop\n        /* \"demo/Function.sol\":83:182  function returnMany()public pure  returns(uint256,bool,uint256){... */\n      swap1\n      swap2\n      swap3\n      jump\t// out\n        /* \"demo/Function.sol\":296:420  function assigned() public  pure  returns (uint256 x, bool b,uint256 y){... */\n    tag_31:\n        /* \"demo/Function.sol\":339:348  uint256 x */\n      0x00\n        /* \"demo/Function.sol\":350:356  bool b */\n      dup1\n        /* \"demo/Function.sol\":357:366  uint256 y */\n      0x00\n        /* \"demo/Function.sol\":380:381  1 */\n      0x01\n        /* \"demo/Function.sol\":378:381  x=1 */\n      swap3\n      pop\n        /* \"demo/Function.sol\":394:398  true */\n      0x01\n        /* \"demo/Function.sol\":392:398  b=true */\n      swap2\n      pop\n        /* \"demo/Function.sol\":411:412  2 */\n      0x02\n        /* \"demo/Function.sol\":409:412  y=2 */\n      swap1\n      pop\n        /* \"demo/Function.sol\":296:420  function assigned() public  pure  returns (uint256 x, bool b,uint256 y){... */\n      swap1\n      swap2\n      swap3\n      jump\t// out\n        /* \"#utility.yul\":7:121   */\n    tag_43:\n        /* \"#utility.yul\":74:80   */\n      0x00\n        /* \"#utility.yul\":108:113   */\n      dup2\n        /* \"#utility.yul\":102:114   */\n      mload\n        /* \"#utility.yul\":92:114   */\n      swap1\n      pop\n        /* \"#utility.yul\":7:121   */\n      swap2\n      swap1\n      pop\n      jump\t// out\n        /* \"#utility.yul\":127:311   */\n    tag_44:\n        /* \"#utility.yul\":226:237   */\n      0x00\n        /* \"#utility.yul\":260:266   */\n      dup3\n        /* \"#utility.yul\":255:258   */\n      dup3\n        /* \"#utility.yul\":248:267   */\n      mstore\n        /* \"#utility.yul\":300:304   */\n      0x20\n        /* \"#utility.yul\":295:298   */\n      dup3\n        /* \"#utility.yul\":291:305   */\n      add\n        /* \"#utility.yul\":276:305   */\n      swap1\n      pop\n        /* \"#utility.yul\":127:311   */\n      swap3\n      swap2\n      pop\n      pop\n      jump\t// out\n        /* \"#utility.yul\":317:449   */\n    tag_45:\n        /* \"#utility.yul\":384:388   */\n      0x00\n        /* \"#utility.yul\":407:410   */\n      dup2\n        /* \"#utility.yul\":399:410   */\n      swap1\n      pop\n        /* \"#utility.yul\":437:441   */\n      0x20\n        /* \"#utility.yul\":432:435   */\n      dup3\n        /* \"#utility.yul\":428:442   */\n      add\n        /* \"#utility.yul\":420:442   */\n      swap1\n      pop\n        /* \"#utility.yul\":317:449   */\n      swap2\n      swap1\n      pop\n      jump\t// out\n        /* \"#utility.yul\":455:532   */\n    tag_46:\n        /* \"#utility.yul\":492:499   */\n      0x00\n        /* \"#utility.yul\":521:526   */\n      dup2\n        /* \"#utility.yul\":510:526   */\n      swap1\n      pop\n        /* \"#utility.yul\":455:532   */\n      swap2\n      swap1\n      pop\n      jump\t// out\n        /* \"#utility.yul\":538:646   */\n    tag_47:\n        /* \"#utility.yul\":615:639   */\n      tag_65\n        /* \"#utility.yul\":633:638   */\n      dup2\n        /* \"#utility.yul\":615:639   */\n      tag_46\n      jump\t// in\n    tag_65:\n        /* \"#utility.yul\":610:613   */\n      dup3\n        /* \"#utility.yul\":603:640   */\n      mstore\n        /* \"#utility.yul\":538:646   */\n      pop\n      pop\n      jump\t// out\n        /* \"#utility.yul\":652:831   */\n    tag_48:\n        /* \"#utility.yul\":721:731   */\n      0x00\n        /* \"#utility.yul\":742:788   */\n      tag_67\n        /* \"#utility.yul\":784:787   */\n      dup4\n        /* \"#utility.yul\":776:782   */\n      dup4\n        /* \"#utility.yul\":742:788   */\n      tag_47\n      jump\t// in\n    tag_67:\n        /* \"#utility.yul\":820:824   */\n      0x20\n        /* \"#utility.yul\":815:818   */\n      dup4\n        /* \"#utility.yul\":811:825   */\n      add\n        /* \"#utility.yul\":797:825   */\n      swap1\n      pop\n        /* \"#utility.yul\":652:831   */\n      swap3\n      swap2\n      pop\n      pop\n      jump\t// out\n        /* \"#utility.yul\":837:950   */\n    tag_49:\n        /* \"#utility.yul\":907:911   */\n      0x00\n        /* \"#utility.yul\":939:943   */\n      0x20\n        /* \"#utility.yul\":934:937   */\n      dup3\n        /* \"#utility.yul\":930:944   */\n      add\n        /* \"#utility.yul\":922:944   */\n      swap1\n      pop\n        /* \"#utility.yul\":837:950   */\n      swap2\n      swap1\n      pop\n      jump\t// out\n        /* \"#utility.yul\":986:1718   */\n    tag_50:\n        /* \"#utility.yul\":1105:1108   */\n      0x00\n        /* \"#utility.yul\":1134:1188   */\n      tag_70\n        /* \"#utility.yul\":1182:1187   */\n      dup3\n        /* \"#utility.yul\":1134:1188   */\n      tag_43\n      jump\t// in\n    tag_70:\n        /* \"#utility.yul\":1204:1290   */\n      tag_71\n        /* \"#utility.yul\":1283:1289   */\n      dup2\n        /* \"#utility.yul\":1278:1281   */\n      dup6\n        /* \"#utility.yul\":1204:1290   */\n      tag_44\n      jump\t// in\n    tag_71:\n        /* \"#utility.yul\":1197:1290   */\n      swap4\n      pop\n        /* \"#utility.yul\":1314:1370   */\n      tag_72\n        /* \"#utility.yul\":1364:1369   */\n      dup4\n        /* \"#utility.yul\":1314:1370   */\n      tag_45\n      jump\t// in\n    tag_72:\n        /* \"#utility.yul\":1393:1400   */\n      dup1\n        /* \"#utility.yul\":1424:1425   */\n      0x00\n        /* \"#utility.yul\":1409:1693   */\n    tag_73:\n        /* \"#utility.yul\":1434:1440   */\n      dup4\n        /* \"#utility.yul\":1431:1432   */\n      dup2\n        /* \"#utility.yul\":1428:1441   */\n      lt\n        /* \"#utility.yul\":1409:1693   */\n      iszero\n      tag_75\n      jumpi\n        /* \"#utility.yul\":1510:1516   */\n      dup2\n        /* \"#utility.yul\":1504:1517   */\n      mload\n        /* \"#utility.yul\":1537:1600   */\n      tag_76\n        /* \"#utility.yul\":1596:1599   */\n      dup9\n        /* \"#utility.yul\":1581:1594   */\n      dup3\n        /* \"#utility.yul\":1537:1600   */\n      tag_48\n      jump\t// in\n    tag_76:\n        /* \"#utility.yul\":1530:1600   */\n      swap8\n      pop\n        /* \"#utility.yul\":1623:1683   */\n      tag_77\n        /* \"#utility.yul\":1676:1682   */\n      dup4\n        /* \"#utility.yul\":1623:1683   */\n      tag_49\n      jump\t// in\n    tag_77:\n        /* \"#utility.yul\":1613:1683   */\n      swap3\n      pop\n        /* \"#utility.yul\":1469:1693   */\n      pop\n        /* \"#utility.yul\":1456:1457   */\n      0x01\n        /* \"#utility.yul\":1453:1454   */\n      dup2\n        /* \"#utility.yul\":1449:1458   */\n      add\n        /* \"#utility.yul\":1444:1458   */\n      swap1\n      pop\n        /* \"#utility.yul\":1409:1693   */\n      jump(tag_73)\n    tag_75:\n        /* \"#utility.yul\":1413:1427   */\n      pop\n        /* \"#utility.yul\":1709:1712   */\n      dup6\n        /* \"#utility.yul\":1702:1712   */\n      swap4\n      pop\n        /* \"#utility.yul\":1110:1718   */\n      pop\n      pop\n      pop\n        /* \"#utility.yul\":986:1718   */\n      swap3\n      swap2\n      pop\n      pop\n      jump\t// out\n        /* \"#utility.yul\":1724:2097   */\n    tag_12:\n        /* \"#utility.yul\":1867:1871   */\n      0x00\n        /* \"#utility.yul\":1905:1907   */\n      0x20\n        /* \"#utility.yul\":1894:1903   */\n      dup3\n        /* \"#utility.yul\":1890:1908   */\n      add\n        /* \"#utility.yul\":1882:1908   */\n      swap1\n      pop\n        /* \"#utility.yul\":1954:1963   */\n      dup2\n        /* \"#utility.yul\":1948:1952   */\n      dup2\n        /* \"#utility.yul\":1944:1964   */\n      sub\n        /* \"#utility.yul\":1940:1941   */\n      0x00\n        /* \"#utility.yul\":1929:1938   */\n      dup4\n        /* \"#utility.yul\":1925:1942   */\n      add\n        /* \"#utility.yul\":1918:1965   */\n      mstore\n        /* \"#utility.yul\":1982:2090   */\n      tag_79\n        /* \"#utility.yul\":2085:2089   */\n      dup2\n        /* \"#utility.yul\":2076:2082   */\n      dup5\n        /* \"#utility.yul\":1982:2090   */\n      tag_50\n      jump\t// in\n    tag_79:\n        /* \"#utility.yul\":1974:2090   */\n      swap1\n      pop\n        /* \"#utility.yul\":1724:2097   */\n      swap3\n      swap2\n      pop\n      pop\n      jump\t// out\n        /* \"#utility.yul\":2103:2221   */\n    tag_51:\n        /* \"#utility.yul\":2190:2214   */\n      tag_81\n        /* \"#utility.yul\":2208:2213   */\n      dup2\n        /* \"#utility.yul\":2190:2214   */\n      tag_46\n      jump\t// in\n    tag_81:\n        /* \"#utility.yul\":2185:2188   */\n      dup3\n        /* \"#utility.yul\":2178:2215   */\n      mstore\n        /* \"#utility.yul\":2103:2221   */\n      pop\n      pop\n      jump\t// out\n        /* \"#utility.yul\":2227:2317   */\n    tag_52:\n        /* \"#utility.yul\":2261:2268   */\n      0x00\n        /* \"#utility.yul\":2304:2309   */\n      dup2\n        /* \"#utility.yul\":2297:2310   */\n      iszero\n        /* \"#utility.yul\":2290:2311   */\n      iszero\n        /* \"#utility.yul\":2279:2311   */\n      swap1\n      pop\n        /* \"#utility.yul\":2227:2317   */\n      swap2\n      swap1\n      pop\n      jump\t// out\n        /* \"#utility.yul\":2323:2432   */\n    tag_53:\n        /* \"#utility.yul\":2404:2425   */\n      tag_84\n        /* \"#utility.yul\":2419:2424   */\n      dup2\n        /* \"#utility.yul\":2404:2425   */\n      tag_52\n      jump\t// in\n    tag_84:\n        /* \"#utility.yul\":2399:2402   */\n      dup3\n        /* \"#utility.yul\":2392:2426   */\n      mstore\n        /* \"#utility.yul\":2323:2432   */\n      pop\n      pop\n      jump\t// out\n        /* \"#utility.yul\":2438:2868   */\n    tag_16:\n        /* \"#utility.yul\":2581:2585   */\n      0x00\n        /* \"#utility.yul\":2619:2621   */\n      0x60\n        /* \"#utility.yul\":2608:2617   */\n      dup3\n        /* \"#utility.yul\":2604:2622   */\n      add\n        /* \"#utility.yul\":2596:2622   */\n      swap1\n      pop\n        /* \"#utility.yul\":2632:2703   */\n      tag_86\n        /* \"#utility.yul\":2700:2701   */\n      0x00\n        /* \"#utility.yul\":2689:2698   */\n      dup4\n        /* \"#utility.yul\":2685:2702   */\n      add\n        /* \"#utility.yul\":2676:2682   */\n      dup7\n        /* \"#utility.yul\":2632:2703   */\n      tag_51\n      jump\t// in\n    tag_86:\n        /* \"#utility.yul\":2713:2779   */\n      tag_87\n        /* \"#utility.yul\":2775:2777   */\n      0x20\n        /* \"#utility.yul\":2764:2773   */\n      dup4\n        /* \"#utility.yul\":2760:2778   */\n      add\n        /* \"#utility.yul\":2751:2757   */\n      dup6\n        /* \"#utility.yul\":2713:2779   */\n      tag_53\n      jump\t// in\n    tag_87:\n        /* \"#utility.yul\":2789:2861   */\n      tag_88\n        /* \"#utility.yul\":2857:2859   */\n      0x40\n        /* \"#utility.yul\":2846:2855   */\n      dup4\n        /* \"#utility.yul\":2842:2860   */\n      add\n        /* \"#utility.yul\":2833:2839   */\n      dup5\n        /* \"#utility.yul\":2789:2861   */\n      tag_51\n      jump\t// in\n    tag_88:\n        /* \"#utility.yul\":2438:2868   */\n      swap5\n      swap4\n      pop\n      pop\n      pop\n      pop\n      jump\t// out\n        /* \"#utility.yul\":2874:3526   */\n    tag_20:\n        /* \"#utility.yul\":3073:3077   */\n      0x00\n        /* \"#utility.yul\":3111:3114   */\n      0xa0\n        /* \"#utility.yul\":3100:3109   */\n      dup3\n        /* \"#utility.yul\":3096:3115   */\n      add\n        /* \"#utility.yul\":3088:3115   */\n      swap1\n      pop\n        /* \"#utility.yul\":3125:3196   */\n      tag_90\n        /* \"#utility.yul\":3193:3194   */\n      0x00\n        /* \"#utility.yul\":3182:3191   */\n      dup4\n        /* \"#utility.yul\":3178:3195   */\n      add\n        /* \"#utility.yul\":3169:3175   */\n      dup9\n        /* \"#utility.yul\":3125:3196   */\n      tag_51\n      jump\t// in\n    tag_90:\n        /* \"#utility.yul\":3206:3272   */\n      tag_91\n        /* \"#utility.yul\":3268:3270   */\n      0x20\n        /* \"#utility.yul\":3257:3266   */\n      dup4\n        /* \"#utility.yul\":3253:3271   */\n      add\n        /* \"#utility.yul\":3244:3250   */\n      dup8\n        /* \"#utility.yul\":3206:3272   */\n      tag_53\n      jump\t// in\n    tag_91:\n        /* \"#utility.yul\":3282:3354   */\n      tag_92\n        /* \"#utility.yul\":3350:3352   */\n      0x40\n        /* \"#utility.yul\":3339:3348   */\n      dup4\n        /* \"#utility.yul\":3335:3353   */\n      add\n        /* \"#utility.yul\":3326:3332   */\n      dup7\n        /* \"#utility.yul\":3282:3354   */\n      tag_51\n      jump\t// in\n    tag_92:\n        /* \"#utility.yul\":3364:3436   */\n      tag_93\n        /* \"#utility.yul\":3432:3434   */\n      0x60\n        /* \"#utility.yul\":3421:3430   */\n      dup4\n        /* \"#utility.yul\":3417:3435   */\n      add\n        /* \"#utility.yul\":3408:3414   */\n      dup6\n        /* \"#utility.yul\":3364:3436   */\n      tag_51\n      jump\t// in\n    tag_93:\n        /* \"#utility.yul\":3446:3519   */\n      tag_94\n        /* \"#utility.yul\":3514:3517   */\n      0x80\n        /* \"#utility.yul\":3503:3512   */\n      dup4\n        /* \"#utility.yul\":3499:3518   */\n      add\n        /* \"#utility.yul\":3490:3496   */\n      dup5\n        /* \"#utility.yul\":3446:3519   */\n      tag_51\n      jump\t// in\n    tag_94:\n        /* \"#utility.yul\":2874:3526   */\n      swap7\n      swap6\n      pop\n      pop\n      pop\n      pop\n      pop\n      pop\n      jump\t// out\n        /* \"#utility.yul\":3613:3730   */\n    tag_55:\n        /* \"#utility.yul\":3722:3723   */\n      0x00\n        /* \"#utility.yul\":3719:3720   */\n      dup1\n        /* \"#utility.yul\":3712:3724   */\n      revert\n        /* \"#utility.yul\":3859:3981   */\n    tag_57:\n        /* \"#utility.yul\":3932:3956   */\n      tag_99\n        /* \"#utility.yul\":3950:3955   */\n      dup2\n        /* \"#utility.yul\":3932:3956   */\n      tag_46\n      jump\t// in\n    tag_99:\n        /* \"#utility.yul\":3925:3930   */\n      dup2\n        /* \"#utility.yul\":3922:3957   */\n      eq\n        /* \"#utility.yul\":3912:3975   */\n      tag_100\n      jumpi\n        /* \"#utility.yul\":3971:3972   */\n      0x00\n        /* \"#utility.yul\":3968:3969   */\n      dup1\n        /* \"#utility.yul\":3961:3973   */\n      revert\n        /* \"#utility.yul\":3912:3975   */\n    tag_100:\n        /* \"#utility.yul\":3859:3981   */\n      pop\n      jump\t// out\n        /* \"#utility.yul\":3987:4126   */\n    tag_58:\n        /* \"#utility.yul\":4033:4038   */\n      0x00\n        /* \"#utility.yul\":4071:4077   */\n      dup2\n        /* \"#utility.yul\":4058:4078   */\n      calldataload\n        /* \"#utility.yul\":4049:4078   */\n      swap1\n      pop\n        /* \"#utility.yul\":4087:4120   */\n      tag_102\n        /* \"#utility.yul\":4114:4119   */\n      dup2\n        /* \"#utility.yul\":4087:4120   */\n      tag_57\n      jump\t// in\n    tag_102:\n        /* \"#utility.yul\":3987:4126   */\n      swap3\n      swap2\n      pop\n      pop\n      jump\t// out\n        /* \"#utility.yul\":4132:4461   */\n    tag_23:\n        /* \"#utility.yul\":4191:4197   */\n      0x00\n        /* \"#utility.yul\":4240:4242   */\n      0x20\n        /* \"#utility.yul\":4228:4237   */\n      dup3\n        /* \"#utility.yul\":4219:4226   */\n      dup5\n        /* \"#utility.yul\":4215:4238   */\n      sub\n        /* \"#utility.yul\":4211:4243   */\n      slt\n        /* \"#utility.yul\":4208:4327   */\n      iszero\n      tag_104\n      jumpi\n        /* \"#utility.yul\":4246:4325   */\n      tag_105\n      tag_55\n      jump\t// in\n    tag_105:\n        /* \"#utility.yul\":4208:4327   */\n    tag_104:\n        /* \"#utility.yul\":4366:4367   */\n      0x00\n        /* \"#utility.yul\":4391:4444   */\n      tag_106\n        /* \"#utility.yul\":4436:4443   */\n      dup5\n        /* \"#utility.yul\":4427:4433   */\n      dup3\n        /* \"#utility.yul\":4416:4425   */\n      dup6\n        /* \"#utility.yul\":4412:4434   */\n      add\n        /* \"#utility.yul\":4391:4444   */\n      tag_58\n      jump\t// in\n    tag_106:\n        /* \"#utility.yul\":4381:4444   */\n      swap2\n      pop\n        /* \"#utility.yul\":4337:4454   */\n      pop\n        /* \"#utility.yul\":4132:4461   */\n      swap3\n      swap2\n      pop\n      pop\n      jump\t// out\n        /* \"#utility.yul\":4467:4689   */\n    tag_26:\n        /* \"#utility.yul\":4560:4564   */\n      0x00\n        /* \"#utility.yul\":4598:4600   */\n      0x20\n        /* \"#utility.yul\":4587:4596   */\n      dup3\n        /* \"#utility.yul\":4583:4601   */\n      add\n        /* \"#utility.yul\":4575:4601   */\n      swap1\n      pop\n        /* \"#utility.yul\":4611:4682   */\n      tag_108\n        /* \"#utility.yul\":4679:4680   */\n      0x00\n        /* \"#utility.yul\":4668:4677   */\n      dup4\n        /* \"#utility.yul\":4664:4681   */\n      add\n        /* \"#utility.yul\":4655:4661   */\n      dup5\n        /* \"#utility.yul\":4611:4682   */\n      tag_51\n      jump\t// in\n    tag_108:\n        /* \"#utility.yul\":4467:4689   */\n      swap3\n      swap2\n      pop\n      pop\n      jump\t// out\n\n    auxdata: 0xa26469706673582212201eef6b28af779c395a3b9c89f446f96cb51566477dc45eaa1950e05705145e8c64736f6c634300081a0033\n}\n",
				"bytecode": {
					"linkReferences": {},
					"object": "6080604052348015600e575f80fd5b506104578061001c5f395ff3fe608060405234801561000f575f80fd5b5060043610610060575f3560e01c80631990532b1461006457806345f907a81461008257806368873440146100a257806371e5ee5f146100c457806386887544146100f4578063adb4d99014610114575b5f80fd5b61006c610134565b60405161007991906102e0565b60405180910390f35b61008a610189565b60405161009993929190610329565b60405180910390f35b6100aa61019c565b6040516100bb95949392919061035e565b60405180910390f35b6100de60048036038101906100d991906103dd565b6101da565b6040516100eb9190610408565b60405180910390f35b6100fc6101f9565b60405161010b93929190610329565b60405180910390f35b61011c61020c565b60405161012b93929190610329565b60405180910390f35b60605f80548060200260200160405190810160405280929190818152602001828054801561017f57602002820191905f5260205f20905b81548152602001906001019080831161016b575b5050505050905090565b5f805f6001806002925092509250909192565b5f805f805f805f806101ac6101f9565b9250925092505f80600460056006925050915084848484849950995099509950995050505050509091929394565b5f81815481106101e8575f80fd5b905f5260205f20015f915090505481565b5f805f6001806002925092509250909192565b5f805f600192506001915060029050909192565b5f81519050919050565b5f82825260208201905092915050565b5f819050602082019050919050565b5f819050919050565b61025b81610249565b82525050565b5f61026c8383610252565b60208301905092915050565b5f602082019050919050565b5f61028e82610220565b610298818561022a565b93506102a38361023a565b805f5b838110156102d35781516102ba8882610261565b97506102c583610278565b9250506001810190506102a6565b5085935050505092915050565b5f6020820190508181035f8301526102f88184610284565b905092915050565b61030981610249565b82525050565b5f8115159050919050565b6103238161030f565b82525050565b5f60608201905061033c5f830186610300565b610349602083018561031a565b6103566040830184610300565b949350505050565b5f60a0820190506103715f830188610300565b61037e602083018761031a565b61038b6040830186610300565b6103986060830185610300565b6103a56080830184610300565b9695505050505050565b5f80fd5b6103bc81610249565b81146103c6575f80fd5b50565b5f813590506103d7816103b3565b92915050565b5f602082840312156103f2576103f16103af565b5b5f6103ff848285016103c9565b91505092915050565b5f60208201905061041b5f830184610300565b9291505056fea26469706673582212201eef6b28af779c395a3b9c89f446f96cb51566477dc45eaa1950e05705145e8c64736f6c634300081a0033",
					"opcodes": "PUSH1 0x80 PUSH1 0x40 MSTORE CALLVALUE DUP1 ISZERO PUSH1 0xE JUMPI PUSH0 DUP1 REVERT JUMPDEST POP PUSH2 0x457 DUP1 PUSH2 0x1C PUSH0 CODECOPY PUSH0 RETURN INVALID PUSH1 0x80 PUSH1 0x40 MSTORE CALLVALUE DUP1 ISZERO PUSH2 0xF JUMPI PUSH0 DUP1 REVERT JUMPDEST POP PUSH1 0x4 CALLDATASIZE LT PUSH2 0x60 JUMPI PUSH0 CALLDATALOAD PUSH1 0xE0 SHR DUP1 PUSH4 0x1990532B EQ PUSH2 0x64 JUMPI DUP1 PUSH4 0x45F907A8 EQ PUSH2 0x82 JUMPI DUP1 PUSH4 0x68873440 EQ PUSH2 0xA2 JUMPI DUP1 PUSH4 0x71E5EE5F EQ PUSH2 0xC4 JUMPI DUP1 PUSH4 0x86887544 EQ PUSH2 0xF4 JUMPI DUP1 PUSH4 0xADB4D990 EQ PUSH2 0x114 JUMPI JUMPDEST PUSH0 DUP1 REVERT JUMPDEST PUSH2 0x6C PUSH2 0x134 JUMP JUMPDEST PUSH1 0x40 MLOAD PUSH2 0x79 SWAP2 SWAP1 PUSH2 0x2E0 JUMP JUMPDEST PUSH1 0x40 MLOAD DUP1 SWAP2 SUB SWAP1 RETURN JUMPDEST PUSH2 0x8A PUSH2 0x189 JUMP JUMPDEST PUSH1 0x40 MLOAD PUSH2 0x99 SWAP4 SWAP3 SWAP2 SWAP1 PUSH2 0x329 JUMP JUMPDEST PUSH1 0x40 MLOAD DUP1 SWAP2 SUB SWAP1 RETURN JUMPDEST PUSH2 0xAA PUSH2 0x19C JUMP JUMPDEST PUSH1 0x40 MLOAD PUSH2 0xBB SWAP6 SWAP5 SWAP4 SWAP3 SWAP2 SWAP1 PUSH2 0x35E JUMP JUMPDEST PUSH1 0x40 MLOAD DUP1 SWAP2 SUB SWAP1 RETURN JUMPDEST PUSH2 0xDE PUSH1 0x4 DUP1 CALLDATASIZE SUB DUP2 ADD SWAP1 PUSH2 0xD9 SWAP2 SWAP1 PUSH2 0x3DD JUMP JUMPDEST PUSH2 0x1DA JUMP JUMPDEST PUSH1 0x40 MLOAD PUSH2 0xEB SWAP2 SWAP1 PUSH2 0x408 JUMP JUMPDEST PUSH1 0x40 MLOAD DUP1 SWAP2 SUB SWAP1 RETURN JUMPDEST PUSH2 0xFC PUSH2 0x1F9 JUMP JUMPDEST PUSH1 0x40 MLOAD PUSH2 0x10B SWAP4 SWAP3 SWAP2 SWAP1 PUSH2 0x329 JUMP JUMPDEST PUSH1 0x40 MLOAD DUP1 SWAP2 SUB SWAP1 RETURN JUMPDEST PUSH2 0x11C PUSH2 0x20C JUMP JUMPDEST PUSH1 0x40 MLOAD PUSH2 0x12B SWAP4 SWAP3 SWAP2 SWAP1 PUSH2 0x329 JUMP JUMPDEST PUSH1 0x40 MLOAD DUP1 SWAP2 SUB SWAP1 RETURN JUMPDEST PUSH1 0x60 PUSH0 DUP1 SLOAD DUP1 PUSH1 0x20 MUL PUSH1 0x20 ADD PUSH1 0x40 MLOAD SWAP1 DUP2 ADD PUSH1 0x40 MSTORE DUP1 SWAP3 SWAP2 SWAP1 DUP2 DUP2 MSTORE PUSH1 0x20 ADD DUP3 DUP1 SLOAD DUP1 ISZERO PUSH2 0x17F JUMPI PUSH1 0x20 MUL DUP3 ADD SWAP2 SWAP1 PUSH0 MSTORE PUSH1 0x20 PUSH0 KECCAK256 SWAP1 JUMPDEST DUP2 SLOAD DUP2 MSTORE PUSH1 0x20 ADD SWAP1 PUSH1 0x1 ADD SWAP1 DUP1 DUP4 GT PUSH2 0x16B JUMPI JUMPDEST POP POP POP POP POP SWAP1 POP SWAP1 JUMP JUMPDEST PUSH0 DUP1 PUSH0 PUSH1 0x1 DUP1 PUSH1 0x2 SWAP3 POP SWAP3 POP SWAP3 POP SWAP1 SWAP2 SWAP3 JUMP JUMPDEST PUSH0 DUP1 PUSH0 DUP1 PUSH0 DUP1 PUSH0 DUP1 PUSH2 0x1AC PUSH2 0x1F9 JUMP JUMPDEST SWAP3 POP SWAP3 POP SWAP3 POP PUSH0 DUP1 PUSH1 0x4 PUSH1 0x5 PUSH1 0x6 SWAP3 POP POP SWAP2 POP DUP5 DUP5 DUP5 DUP5 DUP5 SWAP10 POP SWAP10 POP SWAP10 POP SWAP10 POP SWAP10 POP POP POP POP POP POP SWAP1 SWAP2 SWAP3 SWAP4 SWAP5 JUMP JUMPDEST PUSH0 DUP2 DUP2 SLOAD DUP2 LT PUSH2 0x1E8 JUMPI PUSH0 DUP1 REVERT JUMPDEST SWAP1 PUSH0 MSTORE PUSH1 0x20 PUSH0 KECCAK256 ADD PUSH0 SWAP2 POP SWAP1 POP SLOAD DUP2 JUMP JUMPDEST PUSH0 DUP1 PUSH0 PUSH1 0x1 DUP1 PUSH1 0x2 SWAP3 POP SWAP3 POP SWAP3 POP SWAP1 SWAP2 SWAP3 JUMP JUMPDEST PUSH0 DUP1 PUSH0 PUSH1 0x1 SWAP3 POP PUSH1 0x1 SWAP2 POP PUSH1 0x2 SWAP1 POP SWAP1 SWAP2 SWAP3 JUMP JUMPDEST PUSH0 DUP2 MLOAD SWAP1 POP SWAP2 SWAP1 POP JUMP JUMPDEST PUSH0 DUP3 DUP3 MSTORE PUSH1 0x20 DUP3 ADD SWAP1 POP SWAP3 SWAP2 POP POP JUMP JUMPDEST PUSH0 DUP2 SWAP1 POP PUSH1 0x20 DUP3 ADD SWAP1 POP SWAP2 SWAP1 POP JUMP JUMPDEST PUSH0 DUP2 SWAP1 POP SWAP2 SWAP1 POP JUMP JUMPDEST PUSH2 0x25B DUP2 PUSH2 0x249 JUMP JUMPDEST DUP3 MSTORE POP POP JUMP JUMPDEST PUSH0 PUSH2 0x26C DUP4 DUP4 PUSH2 0x252 JUMP JUMPDEST PUSH1 0x20 DUP4 ADD SWAP1 POP SWAP3 SWAP2 POP POP JUMP JUMPDEST PUSH0 PUSH1 0x20 DUP3 ADD SWAP1 POP SWAP2 SWAP1 POP JUMP JUMPDEST PUSH0 PUSH2 0x28E DUP3 PUSH2 0x220 JUMP JUMPDEST PUSH2 0x298 DUP2 DUP6 PUSH2 0x22A JUMP JUMPDEST SWAP4 POP PUSH2 0x2A3 DUP4 PUSH2 0x23A JUMP JUMPDEST DUP1 PUSH0 JUMPDEST DUP4 DUP2 LT ISZERO PUSH2 0x2D3 JUMPI DUP2 MLOAD PUSH2 0x2BA DUP9 DUP3 PUSH2 0x261 JUMP JUMPDEST SWAP8 POP PUSH2 0x2C5 DUP4 PUSH2 0x278 JUMP JUMPDEST SWAP3 POP POP PUSH1 0x1 DUP2 ADD SWAP1 POP PUSH2 0x2A6 JUMP JUMPDEST POP DUP6 SWAP4 POP POP POP POP SWAP3 SWAP2 POP POP JUMP JUMPDEST PUSH0 PUSH1 0x20 DUP3 ADD SWAP1 POP DUP2 DUP2 SUB PUSH0 DUP4 ADD MSTORE PUSH2 0x2F8 DUP2 DUP5 PUSH2 0x284 JUMP JUMPDEST SWAP1 POP SWAP3 SWAP2 POP POP JUMP JUMPDEST PUSH2 0x309 DUP2 PUSH2 0x249 JUMP JUMPDEST DUP3 MSTORE POP POP JUMP JUMPDEST PUSH0 DUP2 ISZERO ISZERO SWAP1 POP SWAP2 SWAP1 POP JUMP JUMPDEST PUSH2 0x323 DUP2 PUSH2 0x30F JUMP JUMPDEST DUP3 MSTORE POP POP JUMP JUMPDEST PUSH0 PUSH1 0x60 DUP3 ADD SWAP1 POP PUSH2 0x33C PUSH0 DUP4 ADD DUP7 PUSH2 0x300 JUMP JUMPDEST PUSH2 0x349 PUSH1 0x20 DUP4 ADD DUP6 PUSH2 0x31A JUMP JUMPDEST PUSH2 0x356 PUSH1 0x40 DUP4 ADD DUP5 PUSH2 0x300 JUMP JUMPDEST SWAP5 SWAP4 POP POP POP POP JUMP JUMPDEST PUSH0 PUSH1 0xA0 DUP3 ADD SWAP1 POP PUSH2 0x371 PUSH0 DUP4 ADD DUP9 PUSH2 0x300 JUMP JUMPDEST PUSH2 0x37E PUSH1 0x20 DUP4 ADD DUP8 PUSH2 0x31A JUMP JUMPDEST PUSH2 0x38B PUSH1 0x40 DUP4 ADD DUP7 PUSH2 0x300 JUMP JUMPDEST PUSH2 0x398 PUSH1 0x60 DUP4 ADD DUP6 PUSH2 0x300 JUMP JUMPDEST PUSH2 0x3A5 PUSH1 0x80 DUP4 ADD DUP5 PUSH2 0x300 JUMP JUMPDEST SWAP7 SWAP6 POP POP POP POP POP POP JUMP JUMPDEST PUSH0 DUP1 REVERT JUMPDEST PUSH2 0x3BC DUP2 PUSH2 0x249 JUMP JUMPDEST DUP2 EQ PUSH2 0x3C6 JUMPI PUSH0 DUP1 REVERT JUMPDEST POP JUMP JUMPDEST PUSH0 DUP2 CALLDATALOAD SWAP1 POP PUSH2 0x3D7 DUP2 PUSH2 0x3B3 JUMP JUMPDEST SWAP3 SWAP2 POP POP JUMP JUMPDEST PUSH0 PUSH1 0x20 DUP3 DUP5 SUB SLT ISZERO PUSH2 0x3F2 JUMPI PUSH2 0x3F1 PUSH2 0x3AF JUMP JUMPDEST JUMPDEST PUSH0 PUSH2 0x3FF DUP5 DUP3 DUP6 ADD PUSH2 0x3C9 JUMP JUMPDEST SWAP2 POP POP SWAP3 SWAP2 POP POP JUMP JUMPDEST PUSH0 PUSH1 0x20 DUP3 ADD SWAP1 POP PUSH2 0x41B PUSH0 DUP4 ADD DUP5 PUSH2 0x300 JUMP JUMPDEST SWAP3 SWAP2 POP POP JUMP INVALID LOG2 PUSH5 0x6970667358 0x22 SLT KECCAK256 0x1E 0xEF PUSH12 0x28AF779C395A3B9C89F446F9 PUSH13 0xB51566477DC45EAA1950E05705 EQ MCOPY DUP13 PUSH5 0x736F6C6343 STOP ADDMOD BYTE STOP CALLER "
				},
				"gasEstimates": {
					"creation": {
						"codeDepositCost": "222200",
						"executionCost": "261",
						"totalCost": "222461"
					},
					"external": {
						"arr(uint256)": "infinite",
						"arrayOutput()": "infinite",
						"assigned()": "infinite",
						"destructuringAssignments()": "infinite",
						"named()": "infinite",
						"returnMany()": "infinite"
					}
				},
				"methodIdentifiers": {
					"arr(uint256)": "71e5ee5f",
					"arrayOutput()": "1990532b",
					"assigned()": "adb4d990",
					"destructuringAssignments()": "68873440",
					"named()": "45f907a8",
					"returnMany()": "86887544"
				}
			},
			"storageLayout": {
				"storage": [
					{
						"astId": 95,
						"contract": "demo/Function.sol:Function",
						"label": "arr",
						"offset": 0,
						"slot": "0",
						"type": "t_array(t_uint256)dyn_storage"
					}
				],
				"types": {
					"t_array(t_uint256)dyn_storage": {
						"base": "t_uint256",
						"encoding": "dynamic_array",
						"label": "uint256[]",
						"numberOfBytes": "32"
					},
					"t_uint256": {
						"encoding": "inplace",
						"label": "uint256",
						"numberOfBytes": "32"
					}
				}
			},
			"userdoc": {
				"kind": "user",
				"methods": {},
				"version": 1
			}
		}
	}
}